{"abi":[{"type":"constructor","inputs":[{"name":"_platformFee","type":"uint256","internalType":"uint256"}],"stateMutability":"nonpayable"},{"type":"receive","stateMutability":"payable"},{"type":"function","name":"FEE_DENOMINATOR","inputs":[],"outputs":[{"name":"","type":"uint256","internalType":"uint256"}],"stateMutability":"view"},{"type":"function","name":"MAX_FEE","inputs":[],"outputs":[{"name":"","type":"uint256","internalType":"uint256"}],"stateMutability":"view"},{"type":"function","name":"createGift","inputs":[{"name":"giftId","type":"uint256","internalType":"uint256"},{"name":"name","type":"string","internalType":"string"},{"name":"price","type":"uint256","internalType":"uint256"},{"name":"animationURI","type":"string","internalType":"string"}],"outputs":[],"stateMutability":"nonpayable"},{"type":"function","name":"deactivateGift","inputs":[{"name":"giftId","type":"uint256","internalType":"uint256"}],"outputs":[],"stateMutability":"nonpayable"},{"type":"function","name":"getAllGifts","inputs":[],"outputs":[{"name":"","type":"tuple[]","internalType":"struct IGiftShop.Gift[]","components":[{"name":"id","type":"uint256","internalType":"uint256"},{"name":"name","type":"string","internalType":"string"},{"name":"price","type":"uint256","internalType":"uint256"},{"name":"animationURI","type":"string","internalType":"string"},{"name":"active","type":"bool","internalType":"bool"}]}],"stateMutability":"view"},{"type":"function","name":"getGift","inputs":[{"name":"giftId","type":"uint256","internalType":"uint256"}],"outputs":[{"name":"","type":"tuple","internalType":"struct IGiftShop.Gift","components":[{"name":"id","type":"uint256","internalType":"uint256"},{"name":"name","type":"string","internalType":"string"},{"name":"price","type":"uint256","internalType":"uint256"},{"name":"animationURI","type":"string","internalType":"string"},{"name":"active","type":"bool","internalType":"bool"}]}],"stateMutability":"view"},{"type":"function","name":"getPlatformFeesAccumulated","inputs":[],"outputs":[{"name":"","type":"uint256","internalType":"uint256"}],"stateMutability":"view"},{"type":"function","name":"getStreamerRevenue","inputs":[{"name":"streamerId","type":"address","internalType":"address"}],"outputs":[{"name":"","type":"uint256","internalType":"uint256"}],"stateMutability":"view"},{"type":"function","name":"getTotalGiftsReceived","inputs":[{"name":"streamerId","type":"address","internalType":"address"}],"outputs":[{"name":"","type":"uint256","internalType":"uint256"}],"stateMutability":"view"},{"type":"function","name":"giftIds","inputs":[{"name":"","type":"uint256","internalType":"uint256"}],"outputs":[{"name":"","type":"uint256","internalType":"uint256"}],"stateMutability":"view"},{"type":"function","name":"gifts","inputs":[{"name":"","type":"uint256","internalType":"uint256"}],"outputs":[{"name":"id","type":"uint256","internalType":"uint256"},{"name":"name","type":"string","internalType":"string"},{"name":"price","type":"uint256","internalType":"uint256"},{"name":"animationURI","type":"string","internalType":"string"},{"name":"active","type":"bool","internalType":"bool"}],"stateMutability":"view"},{"type":"function","name":"owner","inputs":[],"outputs":[{"name":"","type":"address","internalType":"address"}],"stateMutability":"view"},{"type":"function","name":"platformFee","inputs":[],"outputs":[{"name":"","type":"uint256","internalType":"uint256"}],"stateMutability":"view"},{"type":"function","name":"platformFeesAccumulated","inputs":[],"outputs":[{"name":"","type":"uint256","internalType":"uint256"}],"stateMutability":"view"},{"type":"function","name":"renounceOwnership","inputs":[],"outputs":[],"stateMutability":"nonpayable"},{"type":"function","name":"sendGift","inputs":[{"name":"streamerId","type":"address","internalType":"address"},{"name":"giftId","type":"uint256","internalType":"uint256"},{"name":"quantity","type":"uint256","internalType":"uint256"}],"outputs":[],"stateMutability":"payable"},{"type":"function","name":"setPlatformFee","inputs":[{"name":"newFee","type":"uint256","internalType":"uint256"}],"outputs":[],"stateMutability":"nonpayable"},{"type":"function","name":"streamerRevenue","inputs":[{"name":"","type":"address","internalType":"address"}],"outputs":[{"name":"","type":"uint256","internalType":"uint256"}],"stateMutability":"view"},{"type":"function","name":"totalGiftsReceived","inputs":[{"name":"","type":"address","internalType":"address"}],"outputs":[{"name":"","type":"uint256","internalType":"uint256"}],"stateMutability":"view"},{"type":"function","name":"transferOwnership","inputs":[{"name":"newOwner","type":"address","internalType":"address"}],"outputs":[],"stateMutability":"nonpayable"},{"type":"function","name":"updateGift","inputs":[{"name":"giftId","type":"uint256","internalType":"uint256"},{"name":"name","type":"string","internalType":"string"},{"name":"price","type":"uint256","internalType":"uint256"},{"name":"animationURI","type":"string","internalType":"string"}],"outputs":[],"stateMutability":"nonpayable"},{"type":"function","name":"withdrawPlatformFees","inputs":[{"name":"to","type":"address","internalType":"address"}],"outputs":[],"stateMutability":"nonpayable"},{"type":"function","name":"withdrawRevenue","inputs":[],"outputs":[],"stateMutability":"nonpayable"},{"type":"event","name":"GiftCreated","inputs":[{"name":"giftId","type":"uint256","indexed":true,"internalType":"uint256"},{"name":"name","type":"string","indexed":false,"internalType":"string"},{"name":"price","type":"uint256","indexed":false,"internalType":"uint256"},{"name":"animationURI","type":"string","indexed":false,"internalType":"string"}],"anonymous":false},{"type":"event","name":"GiftDeactivated","inputs":[{"name":"giftId","type":"uint256","indexed":true,"internalType":"uint256"}],"anonymous":false},{"type":"event","name":"GiftSent","inputs":[{"name":"from","type":"address","indexed":true,"internalType":"address"},{"name":"streamerId","type":"address","indexed":true,"internalType":"address"},{"name":"giftId","type":"uint256","indexed":true,"internalType":"uint256"},{"name":"quantity","type":"uint256","indexed":false,"internalType":"uint256"},{"name":"totalValue","type":"uint256","indexed":false,"internalType":"uint256"}],"anonymous":false},{"type":"event","name":"GiftUpdated","inputs":[{"name":"giftId","type":"uint256","indexed":true,"internalType":"uint256"},{"name":"name","type":"string","indexed":false,"internalType":"string"},{"name":"price","type":"uint256","indexed":false,"internalType":"uint256"},{"name":"animationURI","type":"string","indexed":false,"internalType":"string"}],"anonymous":false},{"type":"event","name":"OwnershipTransferred","inputs":[{"name":"previousOwner","type":"address","indexed":true,"internalType":"address"},{"name":"newOwner","type":"address","indexed":true,"internalType":"address"}],"anonymous":false},{"type":"event","name":"PlatformFeeUpdated","inputs":[{"name":"oldFee","type":"uint256","indexed":false,"internalType":"uint256"},{"name":"newFee","type":"uint256","indexed":false,"internalType":"uint256"}],"anonymous":false},{"type":"event","name":"PlatformFeesWithdrawn","inputs":[{"name":"to","type":"address","indexed":true,"internalType":"address"},{"name":"amount","type":"uint256","indexed":false,"internalType":"uint256"}],"anonymous":false},{"type":"event","name":"RevenueWithdrawn","inputs":[{"name":"streamerId","type":"address","indexed":true,"internalType":"address"},{"name":"amount","type":"uint256","indexed":false,"internalType":"uint256"}],"anonymous":false},{"type":"error","name":"EmptyName","inputs":[]},{"type":"error","name":"GiftAlreadyExists","inputs":[]},{"type":"error","name":"GiftNotActive","inputs":[]},{"type":"error","name":"GiftNotFound","inputs":[]},{"type":"error","name":"InsufficientBalance","inputs":[]},{"type":"error","name":"InvalidFee","inputs":[]},{"type":"error","name":"InvalidPayment","inputs":[]},{"type":"error","name":"OwnableInvalidOwner","inputs":[{"name":"owner","type":"address","internalType":"address"}]},{"type":"error","name":"OwnableUnauthorizedAccount","inputs":[{"name":"account","type":"address","internalType":"address"}]},{"type":"error","name":"ReentrancyGuardReentrantCall","inputs":[]},{"type":"error","name":"TransferFailed","inputs":[]},{"type":"error","name":"ZeroAddress","inputs":[]},{"type":"error","name":"ZeroAmount","inputs":[]},{"type":"error","name":"ZeroPrice","inputs":[]}],"bytecode":{"object":"0x608060405234801561000f575f80fd5b50604051611a21380380611a2183398101604081905261002e916100db565b338061005357604051631e4fbdf760e01b81525f600482015260240160405180910390fd5b61005c8161008c565b50600180556103e8811115610084576040516358d620b360e01b815260040160405180910390fd5b6002556100f2565b5f80546001600160a01b038381166001600160a01b0319831681178455604051919092169283917f8be0079c531659141344cd1fd0a4f28419497f9722a3daafe3b4186f6b6457e09190a35050565b5f602082840312156100eb575f80fd5b5051919050565b611922806100ff5f395ff3fe60806040526004361061013f575f3560e01c80638da5cb5b116100b3578063d64147bf1161006d578063d64147bf14610394578063d691d706146103b5578063d73792a9146103d4578063ec3889b5146103e9578063f2fde38b14610408578063f641fe3914610427575f80fd5b80638da5cb5b146102a7578063b7a156b5146102cd578063b91fdce7146102f8578063bc063e1a14610323578063bf6713f614610338578063d606593514610364575f80fd5b8063636c88f311610104578063636c88f3146101fa578063715018a61461020d5780637a02253a1461022157806384a94c9b1461023557806389bb7b581461025457806389d33abe14610273575f80fd5b8063098978e01461014a57806312e8e2c31461019157806326232a2e146101b25780634f573cb2146101c75780635fed4914146101db575f80fd5b3661014657005b5f80fd5b348015610155575f80fd5b5061017e610164366004611386565b6001600160a01b03165f9081526006602052604090205490565b6040519081526020015b60405180910390f35b34801561019c575f80fd5b506101b06101ab3660046113a6565b61043c565b005b3480156101bd575f80fd5b5061017e60025481565b3480156101d2575f80fd5b506101b06104ac565b3480156101e6575f80fd5b506101b06101f53660046113a6565b61059b565b6101b06102083660046113bd565b610612565b348015610218575f80fd5b506101b0610933565b34801561022c575f80fd5b5060075461017e565b348015610240575f80fd5b506101b061024f366004611432565b610944565b34801561025f575f80fd5b506101b061026e366004611432565b610a42565b34801561027e575f80fd5b5061017e61028d366004611386565b6001600160a01b03165f9081526005602052604090205490565b3480156102b2575f80fd5b505f546040516001600160a01b039091168152602001610188565b3480156102d8575f80fd5b5061017e6102e7366004611386565b60066020525f908152604090205481565b348015610303575f80fd5b5061017e610312366004611386565b60056020525f908152604090205481565b34801561032e575f80fd5b5061017e6103e881565b348015610343575f80fd5b506103576103523660046113a6565b610c10565b604051610188919061153c565b34801561036f575f80fd5b5061038361037e3660046113a6565b610dd4565b60405161018895949392919061154e565b34801561039f575f80fd5b506103a8610f11565b6040516101889190611593565b3480156103c0575f80fd5b5061017e6103cf3660046113a6565b611149565b3480156103df575f80fd5b5061017e61271081565b3480156103f4575f80fd5b506101b0610403366004611386565b611168565b348015610413575f80fd5b506101b0610422366004611386565b611287565b348015610432575f80fd5b5061017e60075481565b6104446112c6565b6103e8811115610467576040516358d620b360e01b815260040160405180910390fd5b600280549082905560408051828152602081018490527fd347e206f25a89b917fc9482f1a2d294d749baa4dc9bde7fb495ee11fe491643910160405180910390a15050565b6104b46112f2565b335f90815260056020526040812054908190036104e457604051631e9acf1760e31b815260040160405180910390fd5b335f818152600560205260408082208290555190919083908381818185875af1925050503d805f8114610532576040519150601f19603f3d011682016040523d82523d5f602084013e610537565b606091505b5050905080610559576040516312171d8360e31b815260040160405180910390fd5b60405182815233907f86a5cc8fe9af9ae68fb50f62885307a7755a30cbd290131644377f0bd94a71819060200160405180910390a2505061059960018055565b565b6105a36112c6565b5f8181526003602052604081205490036105d057604051630615b0ed60e41b815260040160405180910390fd5b5f81815260036020526040808220600401805460ff191690555182917fe86b56b63d3243eafd38e8bfbc7ea4d3293f5af1878e3ae3acef887b024a41cc91a250565b61061a6112f2565b6001600160a01b0383166106415760405163d92e233d60e01b815260040160405180910390fd5b805f0361066157604051631f2a200560e01b815260040160405180910390fd5b5f60035f8481526020019081526020015f206040518060a00160405290815f8201548152602001600182018054610697906115f6565b80601f01602080910402602001604051908101604052809291908181526020018280546106c3906115f6565b801561070e5780601f106106e55761010080835404028352916020019161070e565b820191905f5260205f20905b8154815290600101906020018083116106f157829003601f168201915b5050505050815260200160028201548152602001600382018054610731906115f6565b80601f016020809104026020016040519081016040528092919081815260200182805461075d906115f6565b80156107a85780601f1061077f576101008083540402835291602001916107a8565b820191905f5260205f20905b81548152906001019060200180831161078b57829003601f168201915b50505091835250506004919091015460ff16151560209091015280519091505f036107e657604051630615b0ed60e41b815260040160405180910390fd5b8060800151610808576040516377683b1f60e11b815260040160405180910390fd5b5f8282604001516108199190611642565b905080341461083b5760405163078d696560e31b815260040160405180910390fd5b5f6127106002548361084d9190611642565b610857919061165f565b90505f610864828461167e565b6001600160a01b0388165f90815260056020526040812080549293508392909190610890908490611691565b90915550506001600160a01b0387165f90815260066020526040812080548392906108bc908490611691565b925050819055508160075f8282546108d49190611691565b9091555050604080518681526020810185905287916001600160a01b038a169133917fab6501860aefdab013ce0b4ae640042a34974735b9b7976dc1daaa1857fd0819910160405180910390a45050505061092e60018055565b505050565b61093b6112c6565b6105995f61131c565b61094c6112c6565b5f86815260036020526040812054900361097957604051630615b0ed60e41b815260040160405180910390fd5b5f84900361099a57604051632ef1310560e01b815260040160405180910390fd5b825f036109ba57604051634dfba02360e01b815260040160405180910390fd5b5f8681526003602052604090206001016109d5858783611703565b505f86815260036020819052604090912060028101859055016109f9828483611703565b50857f1ff05b7a69662b33e3941a16378c7684e1dc45051b89b91d15380a5c4a1f3e468686868686604051610a329594939291906117e5565b60405180910390a2505050505050565b610a4a6112c6565b5f8681526003602052604090205415610a76576040516361079ec560e11b815260040160405180910390fd5b5f849003610a9757604051632ef1310560e01b815260040160405180910390fd5b825f03610ab757604051634dfba02360e01b815260040160405180910390fd5b6040518060a0016040528087815260200186868080601f0160208091040260200160405190810160405280939291908181526020018383808284375f92019190915250505090825250602080820186905260408051601f860183900483028101830182528581529201919085908590819084018382808284375f9201829052509385525050600160209384018190528a8352600384526040909220845181559284015191830191610b6991508261181d565b506040820151600282015560608201516003820190610b88908261181d565b50608091909101516004918201805460ff191691151591909117905580546001810182555f919091527f8a35acfbc15ff81a39ae7d344fd709f28e8600b4aa8c65c6b64bfe7fe36bd19b0186905560405186907fbce0adaa03a8a5e67e53c69d43757db0adf9ff215e692d7b6a99c5966f96f26190610a3290889088908890889088906117e5565b610c416040518060a001604052805f8152602001606081526020015f8152602001606081526020015f151581525090565b5f828152600360205260408120549003610c6e57604051630615b0ed60e41b815260040160405180910390fd5b60035f8381526020019081526020015f206040518060a00160405290815f8201548152602001600182018054610ca3906115f6565b80601f0160208091040260200160405190810160405280929190818152602001828054610ccf906115f6565b8015610d1a5780601f10610cf157610100808354040283529160200191610d1a565b820191905f5260205f20905b815481529060010190602001808311610cfd57829003601f168201915b5050505050815260200160028201548152602001600382018054610d3d906115f6565b80601f0160208091040260200160405190810160405280929190818152602001828054610d69906115f6565b8015610db45780601f10610d8b57610100808354040283529160200191610db4565b820191905f5260205f20905b815481529060010190602001808311610d9757829003601f168201915b50505091835250506004919091015460ff16151560209091015292915050565b60036020525f908152604090208054600182018054919291610df5906115f6565b80601f0160208091040260200160405190810160405280929190818152602001828054610e21906115f6565b8015610e6c5780601f10610e4357610100808354040283529160200191610e6c565b820191905f5260205f20905b815481529060010190602001808311610e4f57829003601f168201915b505050505090806002015490806003018054610e87906115f6565b80601f0160208091040260200160405190810160405280929190818152602001828054610eb3906115f6565b8015610efe5780601f10610ed557610100808354040283529160200191610efe565b820191905f5260205f20905b815481529060010190602001808311610ee157829003601f168201915b5050506004909301549192505060ff1685565b6004546060905f8167ffffffffffffffff811115610f3157610f316116a4565b604051908082528060200260200182016040528015610f9357816020015b610f806040518060a001604052805f8152602001606081526020015f8152602001606081526020015f151581525090565b815260200190600190039081610f4f5790505b5090505f5b828110156111425760035f60048381548110610fb657610fb66118d8565b905f5260205f20015481526020019081526020015f206040518060a00160405290815f8201548152602001600182018054610ff0906115f6565b80601f016020809104026020016040519081016040528092919081815260200182805461101c906115f6565b80156110675780601f1061103e57610100808354040283529160200191611067565b820191905f5260205f20905b81548152906001019060200180831161104a57829003601f168201915b505050505081526020016002820154815260200160038201805461108a906115f6565b80601f01602080910402602001604051908101604052809291908181526020018280546110b6906115f6565b80156111015780601f106110d857610100808354040283529160200191611101565b820191905f5260205f20905b8154815290600101906020018083116110e457829003601f168201915b50505091835250506004919091015460ff161515602090910152825183908390811061112f5761112f6118d8565b6020908102919091010152600101610f98565b5092915050565b60048181548110611158575f80fd5b5f91825260209091200154905081565b6111706112c6565b6111786112f2565b6001600160a01b03811661119f5760405163d92e233d60e01b815260040160405180910390fd5b6007545f8190036111c357604051631e9acf1760e31b815260040160405180910390fd5b5f60078190556040516001600160a01b0384169083908381818185875af1925050503d805f811461120f576040519150601f19603f3d011682016040523d82523d5f602084013e611214565b606091505b5050905080611236576040516312171d8360e31b815260040160405180910390fd5b826001600160a01b03167ffc7ad544ff6a06d6499925723d25b6fe70457a42939995b1d3d6f560fe3363338360405161127191815260200190565b60405180910390a2505061128460018055565b50565b61128f6112c6565b6001600160a01b0381166112bd57604051631e4fbdf760e01b81525f60048201526024015b60405180910390fd5b6112848161131c565b5f546001600160a01b031633146105995760405163118cdaa760e01b81523360048201526024016112b4565b60026001540361131557604051633ee5aeb560e01b815260040160405180910390fd5b6002600155565b5f80546001600160a01b038381166001600160a01b0319831681178455604051919092169283917f8be0079c531659141344cd1fd0a4f28419497f9722a3daafe3b4186f6b6457e09190a35050565b80356001600160a01b0381168114611381575f80fd5b919050565b5f60208284031215611396575f80fd5b61139f8261136b565b9392505050565b5f602082840312156113b6575f80fd5b5035919050565b5f805f606084860312156113cf575f80fd5b6113d88461136b565b95602085013595506040909401359392505050565b5f8083601f8401126113fd575f80fd5b50813567ffffffffffffffff811115611414575f80fd5b60208301915083602082850101111561142b575f80fd5b9250929050565b5f805f805f8060808789031215611447575f80fd5b86359550602087013567ffffffffffffffff811115611464575f80fd5b61147089828a016113ed565b90965094505060408701359250606087013567ffffffffffffffff811115611496575f80fd5b6114a289828a016113ed565b979a9699509497509295939492505050565b5f81518084528060208401602086015e5f602082860101526020601f19601f83011685010191505092915050565b805182525f602082015160a0602085015261150060a08501826114b4565b9050604083015160408501526060830151848203606086015261152382826114b4565b9150506080830151151560808501528091505092915050565b602081525f61139f60208301846114e2565b85815260a060208201525f61156660a08301876114b4565b856040840152828103606084015261157e81866114b4565b91505082151560808301529695505050505050565b5f602082016020835280845180835260408501915060408160051b8601019250602086015f5b828110156115ea57603f198786030184526115d58583516114e2565b945060209384019391909101906001016115b9565b50929695505050505050565b600181811c9082168061160a57607f821691505b60208210810361162857634e487b7160e01b5f52602260045260245ffd5b50919050565b634e487b7160e01b5f52601160045260245ffd5b80820281158282048414176116595761165961162e565b92915050565b5f8261167957634e487b7160e01b5f52601260045260245ffd5b500490565b818103818111156116595761165961162e565b808201808211156116595761165961162e565b634e487b7160e01b5f52604160045260245ffd5b601f82111561092e57805f5260205f20601f840160051c810160208510156116dd5750805b601f840160051c820191505b818110156116fc575f81556001016116e9565b5050505050565b67ffffffffffffffff83111561171b5761171b6116a4565b61172f8361172983546115f6565b836116b8565b5f601f841160018114611760575f85156117495750838201355b5f19600387901b1c1916600186901b1783556116fc565b5f83815260208120601f198716915b8281101561178f578685013582556020948501946001909201910161176f565b50868210156117ab575f1960f88860031b161c19848701351681555b505060018560011b0183555050505050565b81835281816020850137505f828201602090810191909152601f909101601f19169091010190565b606081525f6117f86060830187896117bd565b85602084015282810360408401526118118185876117bd565b98975050505050505050565b815167ffffffffffffffff811115611837576118376116a4565b61184b8161184584546115f6565b846116b8565b6020601f82116001811461187d575f83156118665750848201515b5f19600385901b1c1916600184901b1784556116fc565b5f84815260208120601f198516915b828110156118ac578785015182556020948501946001909201910161188c565b50848210156118c957868401515f19600387901b60f8161c191681555b50505050600190811b01905550565b634e487b7160e01b5f52603260045260245ffdfea2646970667358221220544f1c7b2c7026d02d5527ac88f9f6066965400fc0f94516120305337cba6fe564736f6c634300081a0033","linkReferences":{}},"methodIdentifiers":{"FEE_DENOMINATOR()":"d73792a9","MAX_FEE()":"bc063e1a","createGift(uint256,string,uint256,string)":"89bb7b58","deactivateGift(uint256)":"5fed4914","getAllGifts()":"d64147bf","getGift(uint256)":"bf6713f6","getPlatformFeesAccumulated()":"7a02253a","getStreamerRevenue(address)":"89d33abe","getTotalGiftsReceived(address)":"098978e0","giftIds(uint256)":"d691d706","gifts(uint256)":"d6065935","owner()":"8da5cb5b","platformFee()":"26232a2e","platformFeesAccumulated()":"f641fe39","renounceOwnership()":"715018a6","sendGift(address,uint256,uint256)":"636c88f3","setPlatformFee(uint256)":"12e8e2c3","streamerRevenue(address)":"b91fdce7","totalGiftsReceived(address)":"b7a156b5","transferOwnership(address)":"f2fde38b","updateGift(uint256,string,uint256,string)":"84a94c9b","withdrawPlatformFees(address)":"ec3889b5","withdrawRevenue()":"4f573cb2"},"id":34}