{"abi":[{"type":"constructor","inputs":[{"name":"treasury_","type":"address","internalType":"address"},{"name":"sellerRegistry_","type":"address","internalType":"address"},{"name":"productRegistry_","type":"address","internalType":"address"},{"name":"owner_","type":"address","internalType":"address"}],"stateMutability":"nonpayable"},{"type":"receive","stateMutability":"payable"},{"type":"function","name":"_autoReleaseTimeout","inputs":[],"outputs":[{"name":"","type":"uint256","internalType":"uint256"}],"stateMutability":"view"},{"type":"function","name":"_platformFee","inputs":[],"outputs":[{"name":"","type":"uint256","internalType":"uint256"}],"stateMutability":"view"},{"type":"function","name":"_productRegistry","inputs":[],"outputs":[{"name":"","type":"address","internalType":"contract IProductRegistry"}],"stateMutability":"view"},{"type":"function","name":"_sellerRegistry","inputs":[],"outputs":[{"name":"","type":"address","internalType":"contract ISellerRegistry"}],"stateMutability":"view"},{"type":"function","name":"_treasury","inputs":[],"outputs":[{"name":"","type":"address","internalType":"address"}],"stateMutability":"view"},{"type":"function","name":"autoRelease","inputs":[{"name":"orderId","type":"bytes32","internalType":"bytes32"}],"outputs":[],"stateMutability":"nonpayable"},{"type":"function","name":"autoReleaseTimeout","inputs":[],"outputs":[{"name":"","type":"uint256","internalType":"uint256"}],"stateMutability":"view"},{"type":"function","name":"confirmDelivery","inputs":[{"name":"orderId","type":"bytes32","internalType":"bytes32"}],"outputs":[],"stateMutability":"nonpayable"},{"type":"function","name":"createOrder","inputs":[{"name":"orderId","type":"bytes32","internalType":"bytes32"},{"name":"seller","type":"address","internalType":"address"},{"name":"amount","type":"uint256","internalType":"uint256"},{"name":"productId","type":"uint256","internalType":"uint256"}],"outputs":[],"stateMutability":"payable"},{"type":"function","name":"disputeOrder","inputs":[{"name":"orderId","type":"bytes32","internalType":"bytes32"},{"name":"reason","type":"string","internalType":"string"}],"outputs":[],"stateMutability":"nonpayable"},{"type":"function","name":"getOrder","inputs":[{"name":"orderId","type":"bytes32","internalType":"bytes32"}],"outputs":[{"name":"","type":"tuple","internalType":"struct IOrderEscrow.Order","components":[{"name":"buyer","type":"address","internalType":"address"},{"name":"seller","type":"address","internalType":"address"},{"name":"amount","type":"uint256","internalType":"uint256"},{"name":"productId","type":"uint256","internalType":"uint256"},{"name":"createdAt","type":"uint256","internalType":"uint256"},{"name":"status","type":"uint8","internalType":"enum IOrderEscrow.OrderStatus"}]}],"stateMutability":"view"},{"type":"function","name":"owner","inputs":[],"outputs":[{"name":"","type":"address","internalType":"address"}],"stateMutability":"view"},{"type":"function","name":"platformFee","inputs":[],"outputs":[{"name":"","type":"uint256","internalType":"uint256"}],"stateMutability":"view"},{"type":"function","name":"refundOrder","inputs":[{"name":"orderId","type":"bytes32","internalType":"bytes32"}],"outputs":[],"stateMutability":"nonpayable"},{"type":"function","name":"renounceOwnership","inputs":[],"outputs":[],"stateMutability":"nonpayable"},{"type":"function","name":"setAutoReleaseTimeout","inputs":[{"name":"newTimeout","type":"uint256","internalType":"uint256"}],"outputs":[],"stateMutability":"nonpayable"},{"type":"function","name":"setPlatformFee","inputs":[{"name":"newFee","type":"uint256","internalType":"uint256"}],"outputs":[],"stateMutability":"nonpayable"},{"type":"function","name":"setProductRegistry","inputs":[{"name":"newRegistry","type":"address","internalType":"address"}],"outputs":[],"stateMutability":"nonpayable"},{"type":"function","name":"setSellerRegistry","inputs":[{"name":"newRegistry","type":"address","internalType":"address"}],"outputs":[],"stateMutability":"nonpayable"},{"type":"function","name":"setTreasury","inputs":[{"name":"newTreasury","type":"address","internalType":"address"}],"outputs":[],"stateMutability":"nonpayable"},{"type":"function","name":"transferOwnership","inputs":[{"name":"newOwner","type":"address","internalType":"address"}],"outputs":[],"stateMutability":"nonpayable"},{"type":"function","name":"treasury","inputs":[],"outputs":[{"name":"","type":"address","internalType":"address"}],"stateMutability":"view"},{"type":"event","name":"AutoReleaseTimeoutUpdated","inputs":[{"name":"oldTimeout","type":"uint256","indexed":false,"internalType":"uint256"},{"name":"newTimeout","type":"uint256","indexed":false,"internalType":"uint256"}],"anonymous":false},{"type":"event","name":"OrderAutoReleased","inputs":[{"name":"orderId","type":"bytes32","indexed":true,"internalType":"bytes32"},{"name":"releasedAmount","type":"uint256","indexed":false,"internalType":"uint256"}],"anonymous":false},{"type":"event","name":"OrderConfirmed","inputs":[{"name":"orderId","type":"bytes32","indexed":true,"internalType":"bytes32"},{"name":"releasedAmount","type":"uint256","indexed":false,"internalType":"uint256"}],"anonymous":false},{"type":"event","name":"OrderCreated","inputs":[{"name":"orderId","type":"bytes32","indexed":true,"internalType":"bytes32"},{"name":"buyer","type":"address","indexed":true,"internalType":"address"},{"name":"seller","type":"address","indexed":true,"internalType":"address"},{"name":"amount","type":"uint256","indexed":false,"internalType":"uint256"},{"name":"productId","type":"uint256","indexed":false,"internalType":"uint256"}],"anonymous":false},{"type":"event","name":"OrderDisputed","inputs":[{"name":"orderId","type":"bytes32","indexed":true,"internalType":"bytes32"},{"name":"reason","type":"string","indexed":false,"internalType":"string"}],"anonymous":false},{"type":"event","name":"OrderRefunded","inputs":[{"name":"orderId","type":"bytes32","indexed":true,"internalType":"bytes32"},{"name":"amount","type":"uint256","indexed":false,"internalType":"uint256"}],"anonymous":false},{"type":"event","name":"OwnershipTransferred","inputs":[{"name":"previousOwner","type":"address","indexed":true,"internalType":"address"},{"name":"newOwner","type":"address","indexed":true,"internalType":"address"}],"anonymous":false},{"type":"event","name":"PlatformFeeUpdated","inputs":[{"name":"oldFee","type":"uint256","indexed":false,"internalType":"uint256"},{"name":"newFee","type":"uint256","indexed":false,"internalType":"uint256"}],"anonymous":false},{"type":"event","name":"TreasuryUpdated","inputs":[{"name":"oldTreasury","type":"address","indexed":false,"internalType":"address"},{"name":"newTreasury","type":"address","indexed":false,"internalType":"address"}],"anonymous":false},{"type":"error","name":"AutoReleaseNotReady","inputs":[]},{"type":"error","name":"InvalidAddress","inputs":[]},{"type":"error","name":"InvalidAmount","inputs":[]},{"type":"error","name":"NotAdmin","inputs":[]},{"type":"error","name":"NotBuyer","inputs":[]},{"type":"error","name":"NotSeller","inputs":[]},{"type":"error","name":"OrderAlreadyExists","inputs":[]},{"type":"error","name":"OrderNotActive","inputs":[]},{"type":"error","name":"OrderNotFound","inputs":[]},{"type":"error","name":"OwnableInvalidOwner","inputs":[{"name":"owner","type":"address","internalType":"address"}]},{"type":"error","name":"OwnableUnauthorizedAccount","inputs":[{"name":"account","type":"address","internalType":"address"}]},{"type":"error","name":"ReentrancyGuardReentrantCall","inputs":[]},{"type":"error","name":"TransferFailed","inputs":[]}],"bytecode":{"object":"0x608060405234801561000f575f80fd5b506040516117d13803806117d183398101604081905261002e9161014d565b60015f55806001600160a01b03811661006057604051631e4fbdf760e01b81525f600482015260240160405180910390fd5b610069816100e1565b506001600160a01b0384166100915760405163e6c4247b60e01b815260040160405180910390fd5b50600480546001600160a01b039485166001600160a01b03199182161790915560028054938516938216939093179092556003805491909316911617905561012c60055562093a8060065561019e565b600180546001600160a01b038381166001600160a01b0319831681179093556040519116919082907f8be0079c531659141344cd1fd0a4f28419497f9722a3daafe3b4186f6b6457e0905f90a35050565b80516001600160a01b0381168114610148575f80fd5b919050565b5f805f8060808587031215610160575f80fd5b61016985610132565b935061017760208601610132565b925061018560408601610132565b915061019360608601610132565b905092959194509250565b611626806101ab5f395ff3fe608060405260043610610134575f3560e01c80637c45d18e116100a8578063e319a3d91161006d578063e319a3d91461032a578063f0f4426014610349578063f2fde38b14610368578063f5a7754a14610387578063fb20190a146103a6578063fd5e2d73146103c5575f80fd5b80637c45d18e146102a65780638da5cb5b146102bb578063af5c4bfd146102d8578063dc27650d146102f7578063e21e258014610316575f80fd5b806346447023116100f957806346447023146101ec5780635778472a1461020b5780635d7996981461023757806361d027b314610256578063715018a61461027357806374950ffd14610287575f80fd5b8063116a1d9a1461013f57806312e8e2c314610160578063134e9c671461017f5780631f900b9e1461019257806326232a2e146101ce575f80fd5b3661013b57005b5f80fd5b34801561014a575f80fd5b5061015e6101593660046111b9565b6103da565b005b34801561016b575f80fd5b5061015e61017a3660046111b9565b61054d565b61015e61018d3660046111eb565b6105be565b34801561019d575f80fd5b506002546101b1906001600160a01b031681565b6040516001600160a01b0390911681526020015b60405180910390f35b3480156101d9575f80fd5b506005545b6040519081526020016101c5565b3480156101f7575f80fd5b5061015e610206366004611223565b610954565b348015610216575f80fd5b5061022a6102253660046111b9565b610a3c565b6040516101c591906112ae565b348015610242575f80fd5b5061015e6102513660046111b9565b610b03565b348015610261575f80fd5b506004546001600160a01b03166101b1565b34801561027e575f80fd5b5061015e610c00565b348015610292575f80fd5b5061015e6102a13660046111b9565b610c13565b3480156102b1575f80fd5b506101de60065481565b3480156102c6575f80fd5b506001546001600160a01b03166101b1565b3480156102e3575f80fd5b506003546101b1906001600160a01b031681565b348015610302575f80fd5b5061015e61031136600461131b565b610d08565b348015610321575f80fd5b506006546101de565b348015610335575f80fd5b506004546101b1906001600160a01b031681565b348015610354575f80fd5b5061015e61036336600461131b565b610d32565b348015610373575f80fd5b5061015e61038236600461131b565b610dbb565b348015610392575f80fd5b5061015e6103a136600461131b565b610dfa565b3480156103b1575f80fd5b5061015e6103c03660046111b9565b610e24565b3480156103d0575f80fd5b506101de60055481565b6103e2610e6a565b6103ea610e92565b5f81815260076020526040902080546001600160a01b031661041f5760405163d36d896560e01b815260040160405180910390fd5b5f600582015460ff1660048111156104395761043961129a565b1415801561046057506002600582015460ff16600481111561045d5761045d61129a565b14155b1561047e57604051631d4ecc5b60e01b815260040160405180910390fd5b60058101805460ff19166003179055805460028201546040515f926001600160a01b031691908381818185875af1925050503d805f81146104da576040519150601f19603f3d011682016040523d82523d5f602084013e6104df565b606091505b5050905080610501576040516312171d8360e31b815260040160405180910390fd5b827fbff5487f6422ba4acbcde6bd5e0ccb83124c240b9deb6a72e7b5eb8c7b71d6fc836002015460405161053791815260200190565b60405180910390a2505061054a60015f55565b50565b610555610e92565b6103e88111156105785760405163162908e360e11b815260040160405180910390fd5b600580549082905560408051828152602081018490527fd347e206f25a89b917fc9482f1a2d294d749baa4dc9bde7fb495ee11fe49164391015b60405180910390a15050565b6105c6610e6a565b5f848152600760205260409020546001600160a01b0316156105fb5760405163966753c560e01b815260040160405180910390fd5b6001600160a01b0383166106225760405163e6c4247b60e01b815260040160405180910390fd5b815f036106425760405163162908e360e11b815260040160405180910390fd5b8134146106625760405163162908e360e11b815260040160405180910390fd5b6002546001600160a01b0316156106fc576002546040516378e96fb560e01b81526001600160a01b038581166004830152909116906378e96fb590602401602060405180830381865afa1580156106bb573d5f803e3d5ffd5b505050506040513d601f19601f820116820180604052508101906106df919061134a565b6106fc5760405163e6c4247b60e01b815260040160405180910390fd5b6003546001600160a01b03161580159061071557505f81115b1561084157600354604051632e76c56d60e21b8152600481018390525f916001600160a01b03169063b9db15b4906024015f60405180830381865afa158015610760573d5f803e3d5ffd5b505050506040513d5f823e601f3d908101601f19168201604052610787919081019061142c565b6002546040516372528c1760e01b81526001600160a01b0387811660048301529293505f92909116906372528c1790602401602060405180830381865afa1580156107d4573d5f803e3d5ffd5b505050506040513d601f19601f820116820180604052508101906107f89190611535565b8251909150811461081c5760405163e6c4247b60e01b815260040160405180910390fd5b8160c0015161083e5760405163162908e360e11b815260040160405180910390fd5b50505b6040805160c0810182523381526001600160a01b0385811660208084019182528385018781526060850187815242608087019081525f60a088018181528d8252600790955297909720865181549087166001600160a01b03199182161782559451600180830180549290981691909616179095559051600285015551600384015593516004808401919091559351600583018054949593949193909260ff19909216919084908111156108f6576108f661129a565b02179055505060408051848152602081018490526001600160a01b0386169250339187917f9a81642995eb82c61150ace07ccae644c97b69fa389b64bff4fc2814f7b77bc0910160405180910390a461094e60015f55565b50505050565b5f83815260076020526040902080546001600160a01b03166109895760405163d36d896560e01b815260040160405180910390fd5b5f600582015460ff1660048111156109a3576109a361129a565b146109c157604051631d4ecc5b60e01b815260040160405180910390fd5b80546001600160a01b031633146109eb5760405163239700bf60e11b815260040160405180910390fd5b60058101805460ff1916600217905560405184907fee4b3ad9190f5248304daea47630eab4d57f027dba7a3664b5c0be831a40f3fb90610a2e908690869061154c565b60405180910390a250505050565b610a716040805160c0810182525f8082526020820181905291810182905260608101829052608081018290529060a082015290565b5f82815260076020908152604091829020825160c08101845281546001600160a01b03908116825260018301541692810192909252600281015492820192909252600382015460608201526004808301546080830152600583015491929160a084019160ff90911690811115610ae957610ae961129a565b6004811115610afa57610afa61129a565b90525092915050565b610b0b610e6a565b5f81815260076020526040902080546001600160a01b0316610b405760405163d36d896560e01b815260040160405180910390fd5b5f600582015460ff166004811115610b5a57610b5a61129a565b14610b7857604051631d4ecc5b60e01b815260040160405180910390fd5b6006548160040154610b8a919061158e565b421015610baa57604051630d6ea62d60e31b815260040160405180910390fd5b60058101805460ff191660041790555f610bc382610ebf565b9050610bce82610fe7565b827fa7ea24806e0a8c6ff15954da2a93a827bd63dfffef4f746cf9c56ac5b78ff0dd8260405161053791815260200190565b610c08610e92565b610c115f611168565b565b610c1b610e6a565b5f81815260076020526040902080546001600160a01b0316610c505760405163d36d896560e01b815260040160405180910390fd5b5f600582015460ff166004811115610c6a57610c6a61129a565b14610c8857604051631d4ecc5b60e01b815260040160405180910390fd5b80546001600160a01b03163314610cb25760405163239700bf60e11b815260040160405180910390fd5b60058101805460ff191660011790555f610ccb82610ebf565b9050610cd682610fe7565b827fdd76b05383bde5c317635cef2df49825b7fd6704f6963b32f4c8e9801879657e8260405161053791815260200190565b610d10610e92565b600280546001600160a01b0319166001600160a01b0392909216919091179055565b610d3a610e92565b6001600160a01b038116610d615760405163e6c4247b60e01b815260040160405180910390fd5b600480546001600160a01b038381166001600160a01b031983168117909355604080519190921680825260208201939093527f4ab5be82436d353e61ca18726e984e561f5c1cc7c6d38b29d2553c790434705a91016105b2565b610dc3610e92565b6001600160a01b038116610df157604051631e4fbdf760e01b81525f60048201526024015b60405180910390fd5b61054a81611168565b610e02610e92565b600380546001600160a01b0319166001600160a01b0392909216919091179055565b610e2c610e92565b600680549082905560408051828152602081018490527f3892e747cc390b2e251081e78a20394ad8586cb16241b94f52439635c8d56b7691016105b2565b60025f5403610e8c57604051633ee5aeb560e01b815260040160405180910390fd5b60025f55565b6001546001600160a01b03163314610c115760405163118cdaa760e01b8152336004820152602401610de8565b5f806127106005548460020154610ed691906115a7565b610ee091906115be565b9050808360020154610ef291906115dd565b91508015610f6d576004546040515f916001600160a01b03169083908381818185875af1925050503d805f8114610f44576040519150601f19603f3d011682016040523d82523d5f602084013e610f49565b606091505b5050905080610f6b576040516312171d8360e31b815260040160405180910390fd5b505b60018301546040515f916001600160a01b03169084908381818185875af1925050503d805f8114610fb9576040519150601f19603f3d011682016040523d82523d5f602084013e610fbe565b606091505b5050905080610fe0576040516312171d8360e31b815260040160405180910390fd5b5050919050565b6002546001600160a01b03161580159061100b57506003546001600160a01b031615155b1561054a5760025460018201546040516372528c1760e01b81526001600160a01b0391821660048201525f9291909116906372528c1790602401602060405180830381865afa158015611060573d5f803e3d5ffd5b505050506040513d601f19601f820116820180604052508101906110849190611535565b905080156110f3576002805490830154604051632358668560e01b81526004810184905260248101919091526001600160a01b03909116906323586685906044015f604051808303815f87803b1580156110dc575f80fd5b505af11580156110ee573d5f803e3d5ffd5b505050505b600382015415611164576003805490830154604051632358668560e01b81526004810191909152600160248201526001600160a01b03909116906323586685906044015f604051808303815f87803b15801561114d575f80fd5b505af115801561115f573d5f803e3d5ffd5b505050505b5050565b600180546001600160a01b038381166001600160a01b0319831681179093556040519116919082907f8be0079c531659141344cd1fd0a4f28419497f9722a3daafe3b4186f6b6457e0905f90a35050565b5f602082840312156111c9575f80fd5b5035919050565b80356001600160a01b03811681146111e6575f80fd5b919050565b5f805f80608085870312156111fe575f80fd5b8435935061120e602086016111d0565b93969395505050506040820135916060013590565b5f805f60408486031215611235575f80fd5b83359250602084013567ffffffffffffffff811115611252575f80fd5b8401601f81018613611262575f80fd5b803567ffffffffffffffff811115611278575f80fd5b866020828401011115611289575f80fd5b939660209190910195509293505050565b634e487b7160e01b5f52602160045260245ffd5b81516001600160a01b0390811682526020808401519091169082015260408083015190820152606080830151908201526080808301519082015260a082015160c08201906005811061130e57634e487b7160e01b5f52602160045260245ffd5b8060a08401525092915050565b5f6020828403121561132b575f80fd5b611334826111d0565b9392505050565b805180151581146111e6575f80fd5b5f6020828403121561135a575f80fd5b6113348261133b565b634e487b7160e01b5f52604160045260245ffd5b604051610120810167ffffffffffffffff8111828210171561139b5761139b611363565b60405290565b5f82601f8301126113b0575f80fd5b815167ffffffffffffffff8111156113ca576113ca611363565b604051601f8201601f19908116603f0116810167ffffffffffffffff811182821017156113f9576113f9611363565b604052818152838201602001851015611410575f80fd5b8160208501602083015e5f918101602001919091529392505050565b5f6020828403121561143c575f80fd5b815167ffffffffffffffff811115611452575f80fd5b82016101208185031215611464575f80fd5b61146c611377565b81518152602082015167ffffffffffffffff811115611489575f80fd5b611495868285016113a1565b602083015250604082015167ffffffffffffffff8111156114b4575f80fd5b6114c0868285016113a1565b604083015250606082810151908201526080808301519082015260a082015167ffffffffffffffff8111156114f3575f80fd5b6114ff868285016113a1565b60a08301525061151160c0830161133b565b60c082015260e0828101519082015261010091820151918101919091529392505050565b5f60208284031215611545575f80fd5b5051919050565b60208152816020820152818360408301375f818301604090810191909152601f909201601f19160101919050565b634e487b7160e01b5f52601160045260245ffd5b808201808211156115a1576115a161157a565b92915050565b80820281158282048414176115a1576115a161157a565b5f826115d857634e487b7160e01b5f52601260045260245ffd5b500490565b818103818111156115a1576115a161157a56fea26469706673582212200231831558672c3011309af910fe75766ba8acfa2cbde684a5a717d69283607a64736f6c634300081a0033","linkReferences":{}},"methodIdentifiers":{"_autoReleaseTimeout()":"7c45d18e","_platformFee()":"fd5e2d73","_productRegistry()":"af5c4bfd","_sellerRegistry()":"1f900b9e","_treasury()":"e319a3d9","autoRelease(bytes32)":"5d799698","autoReleaseTimeout()":"e21e2580","confirmDelivery(bytes32)":"74950ffd","createOrder(bytes32,address,uint256,uint256)":"134e9c67","disputeOrder(bytes32,string)":"46447023","getOrder(bytes32)":"5778472a","owner()":"8da5cb5b","platformFee()":"26232a2e","refundOrder(bytes32)":"116a1d9a","renounceOwnership()":"715018a6","setAutoReleaseTimeout(uint256)":"fb20190a","setPlatformFee(uint256)":"12e8e2c3","setProductRegistry(address)":"f5a7754a","setSellerRegistry(address)":"dc27650d","setTreasury(address)":"f0f44260","transferOwnership(address)":"f2fde38b","treasury()":"61d027b3"},"id":35}