{"abi":[{"type":"constructor","inputs":[{"name":"_platformFee","type":"uint256","internalType":"uint256"}],"stateMutability":"nonpayable"},{"type":"receive","stateMutability":"payable"},{"type":"function","name":"FEE_DENOMINATOR","inputs":[],"outputs":[{"name":"","type":"uint256","internalType":"uint256"}],"stateMutability":"view"},{"type":"function","name":"MAX_FEE","inputs":[],"outputs":[{"name":"","type":"uint256","internalType":"uint256"}],"stateMutability":"view"},{"type":"function","name":"getPlatformFeesAccumulated","inputs":[],"outputs":[{"name":"","type":"uint256","internalType":"uint256"}],"stateMutability":"view"},{"type":"function","name":"getStreamerBalance","inputs":[{"name":"streamerId","type":"address","internalType":"address"}],"outputs":[{"name":"","type":"uint256","internalType":"uint256"}],"stateMutability":"view"},{"type":"function","name":"getTotalTipsReceived","inputs":[{"name":"streamerId","type":"address","internalType":"address"}],"outputs":[{"name":"","type":"uint256","internalType":"uint256"}],"stateMutability":"view"},{"type":"function","name":"owner","inputs":[],"outputs":[{"name":"","type":"address","internalType":"address"}],"stateMutability":"view"},{"type":"function","name":"platformFee","inputs":[],"outputs":[{"name":"","type":"uint256","internalType":"uint256"}],"stateMutability":"view"},{"type":"function","name":"platformFeesAccumulated","inputs":[],"outputs":[{"name":"","type":"uint256","internalType":"uint256"}],"stateMutability":"view"},{"type":"function","name":"renounceOwnership","inputs":[],"outputs":[],"stateMutability":"nonpayable"},{"type":"function","name":"setPlatformFee","inputs":[{"name":"newFee","type":"uint256","internalType":"uint256"}],"outputs":[],"stateMutability":"nonpayable"},{"type":"function","name":"streamerBalances","inputs":[{"name":"","type":"address","internalType":"address"}],"outputs":[{"name":"","type":"uint256","internalType":"uint256"}],"stateMutability":"view"},{"type":"function","name":"tip","inputs":[{"name":"streamerId","type":"address","internalType":"address"},{"name":"message","type":"string","internalType":"string"}],"outputs":[],"stateMutability":"payable"},{"type":"function","name":"totalTipsReceived","inputs":[{"name":"","type":"address","internalType":"address"}],"outputs":[{"name":"","type":"uint256","internalType":"uint256"}],"stateMutability":"view"},{"type":"function","name":"transferOwnership","inputs":[{"name":"newOwner","type":"address","internalType":"address"}],"outputs":[],"stateMutability":"nonpayable"},{"type":"function","name":"withdrawPlatformFees","inputs":[{"name":"to","type":"address","internalType":"address"}],"outputs":[],"stateMutability":"nonpayable"},{"type":"function","name":"withdrawTips","inputs":[],"outputs":[],"stateMutability":"nonpayable"},{"type":"event","name":"OwnershipTransferred","inputs":[{"name":"previousOwner","type":"address","indexed":true,"internalType":"address"},{"name":"newOwner","type":"address","indexed":true,"internalType":"address"}],"anonymous":false},{"type":"event","name":"PlatformFeeUpdated","inputs":[{"name":"oldFee","type":"uint256","indexed":false,"internalType":"uint256"},{"name":"newFee","type":"uint256","indexed":false,"internalType":"uint256"}],"anonymous":false},{"type":"event","name":"PlatformFeesWithdrawn","inputs":[{"name":"to","type":"address","indexed":true,"internalType":"address"},{"name":"amount","type":"uint256","indexed":false,"internalType":"uint256"}],"anonymous":false},{"type":"event","name":"TipSent","inputs":[{"name":"from","type":"address","indexed":true,"internalType":"address"},{"name":"streamerId","type":"address","indexed":true,"internalType":"address"},{"name":"amount","type":"uint256","indexed":false,"internalType":"uint256"},{"name":"message","type":"string","indexed":false,"internalType":"string"},{"name":"timestamp","type":"uint256","indexed":false,"internalType":"uint256"}],"anonymous":false},{"type":"event","name":"TipsWithdrawn","inputs":[{"name":"streamerId","type":"address","indexed":true,"internalType":"address"},{"name":"amount","type":"uint256","indexed":false,"internalType":"uint256"}],"anonymous":false},{"type":"error","name":"InsufficientBalance","inputs":[]},{"type":"error","name":"InvalidFee","inputs":[]},{"type":"error","name":"OwnableInvalidOwner","inputs":[{"name":"owner","type":"address","internalType":"address"}]},{"type":"error","name":"OwnableUnauthorizedAccount","inputs":[{"name":"account","type":"address","internalType":"address"}]},{"type":"error","name":"ReentrancyGuardReentrantCall","inputs":[]},{"type":"error","name":"TransferFailed","inputs":[]},{"type":"error","name":"ZeroAddress","inputs":[]},{"type":"error","name":"ZeroAmount","inputs":[]}],"bytecode":{"object":"0x608060405234801561000f575f80fd5b50604051610a6e380380610a6e83398101604081905261002e916100db565b338061005357604051631e4fbdf760e01b81525f600482015260240160405180910390fd5b61005c8161008c565b50600180556103e8811115610084576040516358d620b360e01b815260040160405180910390fd5b6002556100f2565b5f80546001600160a01b038381166001600160a01b0319831681178455604051919092169283917f8be0079c531659141344cd1fd0a4f28419497f9722a3daafe3b4186f6b6457e09190a35050565b5f602082840312156100eb575f80fd5b5051919050565b61096f806100ff5f395ff3fe6080604052600436106100f2575f3560e01c8063b151961111610087578063d73792a911610057578063d73792a91461028e578063ec3889b5146102a3578063f2fde38b146102c2578063f641fe39146102e1575f80fd5b8063b151961114610210578063ba73d43c14610223578063bc063e1a1461024e578063cd34d1e914610263575f80fd5b8063715018a6116100c2578063715018a61461018e5780637a02253a146101a25780638765d1fd146101b65780638da5cb5b146101ea575f80fd5b806312e8e2c3146100fd57806326232a2e1461011e5780633aaa74b2146101465780635a27fc391461015a575f80fd5b366100f957005b5f80fd5b348015610108575f80fd5b5061011c6101173660046107b5565b6102f6565b005b348015610129575f80fd5b5061013360025481565b6040519081526020015b60405180910390f35b348015610151575f80fd5b5061011c610366565b348015610165575f80fd5b506101336101743660046107e7565b6001600160a01b03165f9081526003602052604090205490565b348015610199575f80fd5b5061011c610455565b3480156101ad575f80fd5b50600554610133565b3480156101c1575f80fd5b506101336101d03660046107e7565b6001600160a01b03165f9081526004602052604090205490565b3480156101f5575f80fd5b505f546040516001600160a01b03909116815260200161013d565b61011c61021e366004610807565b610466565b34801561022e575f80fd5b5061013361023d3660046107e7565b60036020525f908152604090205481565b348015610259575f80fd5b506101336103e881565b34801561026e575f80fd5b5061013361027d3660046107e7565b60046020525f908152604090205481565b348015610299575f80fd5b5061013361271081565b3480156102ae575f80fd5b5061011c6102bd3660046107e7565b6105b2565b3480156102cd575f80fd5b5061011c6102dc3660046107e7565b6106d1565b3480156102ec575f80fd5b5061013360055481565b6102fe610710565b6103e8811115610321576040516358d620b360e01b815260040160405180910390fd5b600280549082905560408051828152602081018490527fd347e206f25a89b917fc9482f1a2d294d749baa4dc9bde7fb495ee11fe491643910160405180910390a15050565b61036e61073c565b335f908152600360205260408120549081900361039e57604051631e9acf1760e31b815260040160405180910390fd5b335f818152600360205260408082208290555190919083908381818185875af1925050503d805f81146103ec576040519150601f19603f3d011682016040523d82523d5f602084013e6103f1565b606091505b5050905080610413576040516312171d8360e31b815260040160405180910390fd5b60405182815233907fdbcc78aa7a73614521d0f2e855bccce29cc98fe3d4cd706eb865205cb09a43069060200160405180910390a2505061045360018055565b565b61045d610710565b6104535f610766565b61046e61073c565b6001600160a01b0383166104955760405163d92e233d60e01b815260040160405180910390fd5b345f036104b557604051631f2a200560e01b815260040160405180910390fd5b60025434905f90612710906104ca9084610899565b6104d491906108b6565b90505f6104e182846108d5565b6001600160a01b0387165f9081526003602052604081208054929350839290919061050d9084906108e8565b90915550506001600160a01b0386165f90815260046020526040812080548392906105399084906108e8565b925050819055508160055f82825461055191906108e8565b90915550506040516001600160a01b0387169033907f981a5763d79e2ce003fc0775cd913962b6959559e89eac108dd58de1fc6d86ab906105999085908a908a9042906108fb565b60405180910390a35050506105ad60018055565b505050565b6105ba610710565b6105c261073c565b6001600160a01b0381166105e95760405163d92e233d60e01b815260040160405180910390fd5b6005545f81900361060d57604051631e9acf1760e31b815260040160405180910390fd5b5f60058190556040516001600160a01b0384169083908381818185875af1925050503d805f8114610659576040519150601f19603f3d011682016040523d82523d5f602084013e61065e565b606091505b5050905080610680576040516312171d8360e31b815260040160405180910390fd5b826001600160a01b03167ffc7ad544ff6a06d6499925723d25b6fe70457a42939995b1d3d6f560fe336333836040516106bb91815260200190565b60405180910390a250506106ce60018055565b50565b6106d9610710565b6001600160a01b03811661070757604051631e4fbdf760e01b81525f60048201526024015b60405180910390fd5b6106ce81610766565b5f546001600160a01b031633146104535760405163118cdaa760e01b81523360048201526024016106fe565b60026001540361075f57604051633ee5aeb560e01b815260040160405180910390fd5b6002600155565b5f80546001600160a01b038381166001600160a01b0319831681178455604051919092169283917f8be0079c531659141344cd1fd0a4f28419497f9722a3daafe3b4186f6b6457e09190a35050565b5f602082840312156107c5575f80fd5b5035919050565b80356001600160a01b03811681146107e2575f80fd5b919050565b5f602082840312156107f7575f80fd5b610800826107cc565b9392505050565b5f805f60408486031215610819575f80fd5b610822846107cc565b9250602084013567ffffffffffffffff81111561083d575f80fd5b8401601f8101861361084d575f80fd5b803567ffffffffffffffff811115610863575f80fd5b866020828401011115610874575f80fd5b939660209190910195509293505050565b634e487b7160e01b5f52601160045260245ffd5b80820281158282048414176108b0576108b0610885565b92915050565b5f826108d057634e487b7160e01b5f52601260045260245ffd5b500490565b818103818111156108b0576108b0610885565b808201808211156108b0576108b0610885565b84815260606020820152826060820152828460808301375f608084830101525f6080601f19601f86011683010190508260408301529594505050505056fea26469706673582212202c08ed0e4c8322f716f2e03ec9e52da79b287f0a41875286df2ba15ba440ab8464736f6c634300081a0033","linkReferences":{}},"methodIdentifiers":{"FEE_DENOMINATOR()":"d73792a9","MAX_FEE()":"bc063e1a","getPlatformFeesAccumulated()":"7a02253a","getStreamerBalance(address)":"5a27fc39","getTotalTipsReceived(address)":"8765d1fd","owner()":"8da5cb5b","platformFee()":"26232a2e","platformFeesAccumulated()":"f641fe39","renounceOwnership()":"715018a6","setPlatformFee(uint256)":"12e8e2c3","streamerBalances(address)":"ba73d43c","tip(address,string)":"b1519611","totalTipsReceived(address)":"cd34d1e9","transferOwnership(address)":"f2fde38b","withdrawPlatformFees(address)":"ec3889b5","withdrawTips()":"3aaa74b2"},"id":39}